S01100004D79313832304C43442E73726563AF
S113000012C019C018C017C016C015C014C013C040
S113001012C011C010C00FC00EC00DC00CC00BC068
S11300200AC009C008C011241FBECFE5D4E0DEBF5A
S1130030CDBFFBD04DC3E4CF9FB7F894B89AE9EC99
S1130040F3E03197F1F700C00000B898FDEAFA95A3
S1130050F1F7000086B39FBFE7E4F3E03197F1F7CF
S113006000C000008095817008959FB7F894B89AF5
S113007025E02A95F1F700008111B8988DEA8A9558
S1130080F1F70000B8989FBF0895EF92FF920F9385
S11300901F93CF93DF93C0E0D0E0EE24E394F12CE0
S11300A0082F10E097010C2E02C0220F331F0A9470
S11300B0E2F7A801422353232417350719F481E0FA
S11300C0D4DF02C080E0D1DF2196C830D10551F7DA
S11300D0DF91CF911F910F91FF90EF9008959FB7FB
S11300E0F894B89A25E02A95F1F70000B89882E2CE
S11300F08A95F1F700C086B328E72A95F1F79FBFE8
S1130100817008951F93CF93DF93C0E0D0E010E097
S1130110E6DF90E00C2E02C0880F991F0A94E2F7E4
S1130120182B2196C830D10599F7812FDF91CF91F3
S11301301F910895CF9380DF8130D9F48CECA5DF33
S113014084E4A3DF2FEF49E658E1215040405040BA
S1130150E1F700C0000070DF8CEC97DF8EEB95DFD9
S1130160D1DFC82FCFDF2C2F30E0A901582BCA01D3
S113017002C080E090E0CF910895292F220F220B36
S1130180322F267B3D7681E0232B09F080E0089511
S1130190929582958F7089279F70892708958F780B
S11301A0089591958195910995958795959587954C
S11301B0959587959595879508959195819591093C
S11301C08F780895939A95E89A95F1F7000092B381
S11301D09F7092BB92B38295807F892B82BB939848
S11301E085E88A95F1F700000895CF93C82F61112F
S11301F002C0929801C0929A8C2F82958F70E2DF90
S11302008C2FE0DFCF91089560E081E0EEDF87EB93
S11302109BE00197F1F700C00000089512BA8FEF38
S113022081BB18BA88E087BB0895F8DFBBD013BC44
S1130230C8E2D0E014E1E8DF7DDF9FDF813009F020
S113024056C078DFA5DF082F75DFA9DF602F70E0C7
S11302509B01220F331F660F771F660F771F660FF0
S1130260771FF901E60FF71F482F50E09A01ADEC14
S1130270BCEC22D296958795969587959695879509
S11302809C01220F331F880F991F880F991F880F15
S1130290991F820F931F9A01281B390B2E0F3F1FA2
S11302A00BD27C01F694E794F694E794F694E794E1
S11302B0B701685D7F4F80E090E00DD128E93EE60C
S11302C042E050E496D120E030E04CE452E473D0B4
S11302D0D6D063BD2CE3E216F10410F013BD58C070
S11302E063BD83B58E3F08F453C013BD51C022DFF4
S11302F058DF082F1FDF61DF602F70E09B01220FA2
S1130300331F660F771F660F771F660F771FF9017C
S1130310E60FF71F482F50E09A01ADECBCECCCD1AE
S11303209695879596958795969587959C01220F26
S1130330331F880F991F880F991F880F991F820FE9
S1130340931F9A01281B390B2E0F3F1FB5D1969589
S1130350879596958795969587958932910510F09E
S113036013BD16C0BE01681B790B80E090E0B3D0CA
S113037028E93EE642E050E43CD120E030E04CE4A1
S113038052E419D07CD063BD83B58E3F08F013BD11
S11303908FEF99E628E1815090402040E1F700C0BA
S11303A0000049CF12BC8EE685BD14BC13BC89B7CE
S11303B089BF08955058BB27AA270ED0E0C0D1D0DA
S11303C030F0D6D020F031F49F3F11F41EF4C6C0B3
S11303D00EF4E095E7FBBCC0E92FE2D080F3BA1736
S11303E0620773078407950718F071F49EF5FAC045
S11303F00EF4E0950B2EBA2FA02D0B01B90190013C
S11304000C01CA01A0011124FF27591B99F0593F7F
S113041050F4503E68F11A16F040A22F232F342FC7
S11304204427585FF3CF469537952795A795F04015
S11304305395C9F77EF41F16BA0B620B730B840B2A
S1130440BAF09150A1F0FF0FBB1F661F771F881FE2
S1130450C2F70EC0BA0F621F731F841F48F487953A
S113046077956795B795F7959E3F08F0B3CF939529
S1130470880F08F09927EE0F97958795089598D0DF
S113048088F09F5790F0B92F9927B751A0F0D1F079
S1130490660F771F881F991F1AF0BA95C9F712C003
S11304A0B13081F09FD0B1E008959CC0672F782FC0
S11304B08827B85F39F0B93FCCF38695779567956F
S11304C0B395D9F73EF490958095709561957F4FDB
S11304D08F4F9F4F0895E89409C097FB3EF4909581
S11304E08095709561957F4F8F4F9F4F9923A9F009
S11304F0F92F96E9BB279395F69587957795679598
S1130500B795F111F8CFFAF4BB0F11F460FF1BC0DB
S11305106F5F7F4F8F4F9F4F16C0882311F096E96E
S113052011C0772321F09EE8872F762F05C066231C
S113053071F096E8862F70E060E02AF09A95660FD5
S1130540771F881FDAF7880F9695879597F908958E
S113055097F99F6780E870E060E008959FEF80EC72
S1130560089500240A941616170618060906089515
S113057000240A9412161306140605060895092E7B
S11305800394000C11F4882352F0BB0F40F4BF2BEA
S113059011F460FF04C06F5F7F4F8F4F9F4F08952A
S11305A057FD9058440F551F59F05F3F71F0479520
S11305B0880F97FB991F61F09F3F79F08795089505
S11305C0121613061406551FF2CF4695F1DF08C024
S11305D0161617061806991FF1CF86957105610541
S11305E008940895E894BB2766277727CB0197F9E9
S11305F008950BD0C4CFB5DF28F0BADF18F09523E7
S113060009F0A6CFABCF1124EECFCADFA0F3959F9C
S1130610D1F3950F50E0551F629FF001729FBB27E5
S1130620F00DB11D639FAA27F00DB11DAA1F649F91
S11306306627B00DA11D661F829F2227B00DA11D44
S1130640621F739FB00DA11D621F839FA00D611DCA
S1130650221F749F3327A00D611D231F849F600DEB
S1130660211D822F762F6A2F11249F5750408AF024
S1130670E1F088234AF0EE0FFF1FBB1F661F771FB0
S1130680881F91505040A9F79E3F510570F060CFEC
S1130690AACF5F3FECF3983EDCF386957795679598
S11306A0B795F795E7959F5FC1F7FE2B880F911DCE
S11306B09695879597F90895A29FB001B39FC001BD
S11306C0A39F01D0B29F700D811D1124911D089527
S10706D0F894FFCFC8
S9030000FC
